{
  "_format": "hh-sol-artifact-1",
  "contractName": "NFTMarketplace",
  "sourceName": "contracts/NFTMarketplace.sol",
  "abi": [
    {
      "inputs": [],
      "stateMutability": "nonpayable",
      "type": "constructor"
    },
    {
      "inputs": [
        {
          "internalType": "address",
          "name": "sender",
          "type": "address"
        },
        {
          "internalType": "uint256",
          "name": "tokenId",
          "type": "uint256"
        },
        {
          "internalType": "address",
          "name": "owner",
          "type": "address"
        }
      ],
      "name": "ERC721IncorrectOwner",
      "type": "error"
    },
    {
      "inputs": [
        {
          "internalType": "address",
          "name": "operator",
          "type": "address"
        },
        {
          "internalType": "uint256",
          "name": "tokenId",
          "type": "uint256"
        }
      ],
      "name": "ERC721InsufficientApproval",
      "type": "error"
    },
    {
      "inputs": [
        {
          "internalType": "address",
          "name": "approver",
          "type": "address"
        }
      ],
      "name": "ERC721InvalidApprover",
      "type": "error"
    },
    {
      "inputs": [
        {
          "internalType": "address",
          "name": "operator",
          "type": "address"
        }
      ],
      "name": "ERC721InvalidOperator",
      "type": "error"
    },
    {
      "inputs": [
        {
          "internalType": "address",
          "name": "owner",
          "type": "address"
        }
      ],
      "name": "ERC721InvalidOwner",
      "type": "error"
    },
    {
      "inputs": [
        {
          "internalType": "address",
          "name": "receiver",
          "type": "address"
        }
      ],
      "name": "ERC721InvalidReceiver",
      "type": "error"
    },
    {
      "inputs": [
        {
          "internalType": "address",
          "name": "sender",
          "type": "address"
        }
      ],
      "name": "ERC721InvalidSender",
      "type": "error"
    },
    {
      "inputs": [
        {
          "internalType": "uint256",
          "name": "tokenId",
          "type": "uint256"
        }
      ],
      "name": "ERC721NonexistentToken",
      "type": "error"
    },
    {
      "inputs": [],
      "name": "FailedCall",
      "type": "error"
    },
    {
      "inputs": [
        {
          "internalType": "uint256",
          "name": "balance",
          "type": "uint256"
        },
        {
          "internalType": "uint256",
          "name": "needed",
          "type": "uint256"
        }
      ],
      "name": "InsufficientBalance",
      "type": "error"
    },
    {
      "inputs": [
        {
          "internalType": "address",
          "name": "owner",
          "type": "address"
        }
      ],
      "name": "OwnableInvalidOwner",
      "type": "error"
    },
    {
      "inputs": [
        {
          "internalType": "address",
          "name": "account",
          "type": "address"
        }
      ],
      "name": "OwnableUnauthorizedAccount",
      "type": "error"
    },
    {
      "anonymous": false,
      "inputs": [
        {
          "indexed": true,
          "internalType": "address",
          "name": "owner",
          "type": "address"
        },
        {
          "indexed": true,
          "internalType": "address",
          "name": "approved",
          "type": "address"
        },
        {
          "indexed": true,
          "internalType": "uint256",
          "name": "tokenId",
          "type": "uint256"
        }
      ],
      "name": "Approval",
      "type": "event"
    },
    {
      "anonymous": false,
      "inputs": [
        {
          "indexed": true,
          "internalType": "address",
          "name": "owner",
          "type": "address"
        },
        {
          "indexed": true,
          "internalType": "address",
          "name": "operator",
          "type": "address"
        },
        {
          "indexed": false,
          "internalType": "bool",
          "name": "approved",
          "type": "bool"
        }
      ],
      "name": "ApprovalForAll",
      "type": "event"
    },
    {
      "anonymous": false,
      "inputs": [
        {
          "indexed": false,
          "internalType": "uint256",
          "name": "_fromTokenId",
          "type": "uint256"
        },
        {
          "indexed": false,
          "internalType": "uint256",
          "name": "_toTokenId",
          "type": "uint256"
        }
      ],
      "name": "BatchMetadataUpdate",
      "type": "event"
    },
    {
      "anonymous": false,
      "inputs": [
        {
          "indexed": true,
          "internalType": "uint256",
          "name": "tokenId",
          "type": "uint256"
        },
        {
          "indexed": false,
          "internalType": "address",
          "name": "seller",
          "type": "address"
        },
        {
          "indexed": false,
          "internalType": "address",
          "name": "owner",
          "type": "address"
        },
        {
          "indexed": false,
          "internalType": "uint256",
          "name": "price",
          "type": "uint256"
        },
        {
          "indexed": false,
          "internalType": "bool",
          "name": "sold",
          "type": "bool"
        }
      ],
      "name": "MarketItemCreated",
      "type": "event"
    },
    {
      "anonymous": false,
      "inputs": [
        {
          "indexed": false,
          "internalType": "uint256",
          "name": "_tokenId",
          "type": "uint256"
        }
      ],
      "name": "MetadataUpdate",
      "type": "event"
    },
    {
      "anonymous": false,
      "inputs": [
        {
          "indexed": true,
          "internalType": "address",
          "name": "previousOwner",
          "type": "address"
        },
        {
          "indexed": true,
          "internalType": "address",
          "name": "newOwner",
          "type": "address"
        }
      ],
      "name": "OwnershipTransferred",
      "type": "event"
    },
    {
      "anonymous": false,
      "inputs": [
        {
          "indexed": true,
          "internalType": "address",
          "name": "from",
          "type": "address"
        },
        {
          "indexed": true,
          "internalType": "address",
          "name": "to",
          "type": "address"
        },
        {
          "indexed": true,
          "internalType": "uint256",
          "name": "tokenId",
          "type": "uint256"
        }
      ],
      "name": "Transfer",
      "type": "event"
    },
    {
      "inputs": [
        {
          "internalType": "address",
          "name": "to",
          "type": "address"
        },
        {
          "internalType": "uint256",
          "name": "tokenId",
          "type": "uint256"
        }
      ],
      "name": "approve",
      "outputs": [],
      "stateMutability": "nonpayable",
      "type": "function"
    },
    {
      "inputs": [
        {
          "internalType": "address",
          "name": "owner",
          "type": "address"
        }
      ],
      "name": "balanceOf",
      "outputs": [
        {
          "internalType": "uint256",
          "name": "",
          "type": "uint256"
        }
      ],
      "stateMutability": "view",
      "type": "function"
    },
    {
      "inputs": [
        {
          "internalType": "uint256",
          "name": "tokenId",
          "type": "uint256"
        }
      ],
      "name": "createMarketSale",
      "outputs": [],
      "stateMutability": "payable",
      "type": "function"
    },
    {
      "inputs": [
        {
          "internalType": "string",
          "name": "tokenURI",
          "type": "string"
        },
        {
          "internalType": "uint256",
          "name": "price",
          "type": "uint256"
        }
      ],
      "name": "createToken",
      "outputs": [
        {
          "internalType": "uint256",
          "name": "",
          "type": "uint256"
        }
      ],
      "stateMutability": "payable",
      "type": "function"
    },
    {
      "inputs": [],
      "name": "fetchMarketItems",
      "outputs": [
        {
          "components": [
            {
              "internalType": "uint256",
              "name": "tokenId",
              "type": "uint256"
            },
            {
              "internalType": "uint256",
              "name": "price",
              "type": "uint256"
            },
            {
              "internalType": "address",
              "name": "seller",
              "type": "address"
            },
            {
              "internalType": "address",
              "name": "owner",
              "type": "address"
            },
            {
              "internalType": "bool",
              "name": "sold",
              "type": "bool"
            }
          ],
          "internalType": "struct NFTMarketplace.MarketItem[]",
          "name": "items",
          "type": "tuple[]"
        }
      ],
      "stateMutability": "view",
      "type": "function"
    },
    {
      "inputs": [],
      "name": "fetchMyNFTs",
      "outputs": [
        {
          "components": [
            {
              "internalType": "uint256",
              "name": "tokenId",
              "type": "uint256"
            },
            {
              "internalType": "uint256",
              "name": "price",
              "type": "uint256"
            },
            {
              "internalType": "address",
              "name": "seller",
              "type": "address"
            },
            {
              "internalType": "address",
              "name": "owner",
              "type": "address"
            },
            {
              "internalType": "bool",
              "name": "sold",
              "type": "bool"
            }
          ],
          "internalType": "struct NFTMarketplace.MarketItem[]",
          "name": "items",
          "type": "tuple[]"
        }
      ],
      "stateMutability": "view",
      "type": "function"
    },
    {
      "inputs": [
        {
          "internalType": "uint256",
          "name": "tokenId",
          "type": "uint256"
        }
      ],
      "name": "getApproved",
      "outputs": [
        {
          "internalType": "address",
          "name": "",
          "type": "address"
        }
      ],
      "stateMutability": "view",
      "type": "function"
    },
    {
      "inputs": [
        {
          "internalType": "address",
          "name": "owner",
          "type": "address"
        },
        {
          "internalType": "address",
          "name": "operator",
          "type": "address"
        }
      ],
      "name": "isApprovedForAll",
      "outputs": [
        {
          "internalType": "bool",
          "name": "",
          "type": "bool"
        }
      ],
      "stateMutability": "view",
      "type": "function"
    },
    {
      "inputs": [],
      "name": "listingPrice",
      "outputs": [
        {
          "internalType": "uint256",
          "name": "",
          "type": "uint256"
        }
      ],
      "stateMutability": "view",
      "type": "function"
    },
    {
      "inputs": [],
      "name": "name",
      "outputs": [
        {
          "internalType": "string",
          "name": "",
          "type": "string"
        }
      ],
      "stateMutability": "view",
      "type": "function"
    },
    {
      "inputs": [],
      "name": "owner",
      "outputs": [
        {
          "internalType": "address",
          "name": "",
          "type": "address"
        }
      ],
      "stateMutability": "view",
      "type": "function"
    },
    {
      "inputs": [
        {
          "internalType": "uint256",
          "name": "tokenId",
          "type": "uint256"
        }
      ],
      "name": "ownerOf",
      "outputs": [
        {
          "internalType": "address",
          "name": "",
          "type": "address"
        }
      ],
      "stateMutability": "view",
      "type": "function"
    },
    {
      "inputs": [],
      "name": "renounceOwnership",
      "outputs": [],
      "stateMutability": "nonpayable",
      "type": "function"
    },
    {
      "inputs": [
        {
          "internalType": "uint256",
          "name": "tokenId",
          "type": "uint256"
        },
        {
          "internalType": "uint256",
          "name": "price",
          "type": "uint256"
        }
      ],
      "name": "resellToken",
      "outputs": [],
      "stateMutability": "payable",
      "type": "function"
    },
    {
      "inputs": [
        {
          "internalType": "address",
          "name": "from",
          "type": "address"
        },
        {
          "internalType": "address",
          "name": "to",
          "type": "address"
        },
        {
          "internalType": "uint256",
          "name": "tokenId",
          "type": "uint256"
        }
      ],
      "name": "safeTransferFrom",
      "outputs": [],
      "stateMutability": "nonpayable",
      "type": "function"
    },
    {
      "inputs": [
        {
          "internalType": "address",
          "name": "from",
          "type": "address"
        },
        {
          "internalType": "address",
          "name": "to",
          "type": "address"
        },
        {
          "internalType": "uint256",
          "name": "tokenId",
          "type": "uint256"
        },
        {
          "internalType": "bytes",
          "name": "data",
          "type": "bytes"
        }
      ],
      "name": "safeTransferFrom",
      "outputs": [],
      "stateMutability": "nonpayable",
      "type": "function"
    },
    {
      "inputs": [
        {
          "internalType": "address",
          "name": "operator",
          "type": "address"
        },
        {
          "internalType": "bool",
          "name": "approved",
          "type": "bool"
        }
      ],
      "name": "setApprovalForAll",
      "outputs": [],
      "stateMutability": "nonpayable",
      "type": "function"
    },
    {
      "inputs": [
        {
          "internalType": "bytes4",
          "name": "interfaceId",
          "type": "bytes4"
        }
      ],
      "name": "supportsInterface",
      "outputs": [
        {
          "internalType": "bool",
          "name": "",
          "type": "bool"
        }
      ],
      "stateMutability": "view",
      "type": "function"
    },
    {
      "inputs": [],
      "name": "symbol",
      "outputs": [
        {
          "internalType": "string",
          "name": "",
          "type": "string"
        }
      ],
      "stateMutability": "view",
      "type": "function"
    },
    {
      "inputs": [
        {
          "internalType": "uint256",
          "name": "tokenId",
          "type": "uint256"
        }
      ],
      "name": "tokenURI",
      "outputs": [
        {
          "internalType": "string",
          "name": "",
          "type": "string"
        }
      ],
      "stateMutability": "view",
      "type": "function"
    },
    {
      "inputs": [
        {
          "internalType": "address",
          "name": "from",
          "type": "address"
        },
        {
          "internalType": "address",
          "name": "to",
          "type": "address"
        },
        {
          "internalType": "uint256",
          "name": "tokenId",
          "type": "uint256"
        }
      ],
      "name": "transferFrom",
      "outputs": [],
      "stateMutability": "nonpayable",
      "type": "function"
    },
    {
      "inputs": [
        {
          "internalType": "address",
          "name": "newOwner",
          "type": "address"
        }
      ],
      "name": "transferOwnership",
      "outputs": [],
      "stateMutability": "nonpayable",
      "type": "function"
    },
    {
      "inputs": [
        {
          "internalType": "uint256",
          "name": "_listingPrice",
          "type": "uint256"
        }
      ],
      "name": "updateListingPrice",
      "outputs": [],
      "stateMutability": "nonpayable",
      "type": "function"
    }
  ],
  "bytecode": "0x608060405264746a528800600a553480156200001a57600080fd5b50336040518060400160405280600a81526020017f4d6574614d61726b6574000000000000000000000000000000000000000000008152506040518060400160405280600381526020017f4d4d54000000000000000000000000000000000000000000000000000000000081525081600090816200009991906200047b565b508060019081620000ab91906200047b565b505050600073ffffffffffffffffffffffffffffffffffffffff168173ffffffffffffffffffffffffffffffffffffffff1603620001235760006040517f1e4fbdf70000000000000000000000000000000000000000000000000000000081526004016200011a9190620005a7565b60405180910390fd5b62000134816200013b60201b60201c565b50620005c4565b6000600760009054906101000a900473ffffffffffffffffffffffffffffffffffffffff16905081600760006101000a81548173ffffffffffffffffffffffffffffffffffffffff021916908373ffffffffffffffffffffffffffffffffffffffff1602179055508173ffffffffffffffffffffffffffffffffffffffff168173ffffffffffffffffffffffffffffffffffffffff167f8be0079c531659141344cd1fd0a4f28419497f9722a3daafe3b4186f6b6457e060405160405180910390a35050565b600081519050919050565b7f4e487b7100000000000000000000000000000000000000000000000000000000600052604160045260246000fd5b7f4e487b7100000000000000000000000000000000000000000000000000000000600052602260045260246000fd5b600060028204905060018216806200028357607f821691505b6020821081036200029957620002986200023b565b5b50919050565b60008190508160005260206000209050919050565b60006020601f8301049050919050565b600082821b905092915050565b600060088302620003037fffffffffffffffffffffffffffffffffffffffffffffffffffffffffffffffff82620002c4565b6200030f8683620002c4565b95508019841693508086168417925050509392505050565b6000819050919050565b6000819050919050565b60006200035c62000356620003508462000327565b62000331565b62000327565b9050919050565b6000819050919050565b62000378836200033b565b62000390620003878262000363565b848454620002d1565b825550505050565b600090565b620003a762000398565b620003b48184846200036d565b505050565b5b81811015620003dc57620003d06000826200039d565b600181019050620003ba565b5050565b601f8211156200042b57620003f5816200029f565b6200040084620002b4565b8101602085101562000410578190505b620004286200041f85620002b4565b830182620003b9565b50505b505050565b600082821c905092915050565b6000620004506000198460080262000430565b1980831691505092915050565b60006200046b83836200043d565b9150826002028217905092915050565b620004868262000201565b67ffffffffffffffff811115620004a257620004a16200020c565b5b620004ae82546200026a565b620004bb828285620003e0565b600060209050601f831160018114620004f35760008415620004de578287015190505b620004ea85826200045d565b8655506200055a565b601f19841662000503866200029f565b60005b828110156200052d5784890151825560018201915060208501945060208101905062000506565b868310156200054d578489015162000549601f8916826200043d565b8355505b6001600288020188555050505b505050505050565b600073ffffffffffffffffffffffffffffffffffffffff82169050919050565b60006200058f8262000562565b9050919050565b620005a18162000582565b82525050565b6000602082019050620005be600083018462000596565b92915050565b6139dd80620005d46000396000f3fe6080604052600436106101405760003560e01c806372b3b620116100b6578063be9af5361161006f578063be9af5361461044d578063c78f19f914610469578063c87b56dd14610494578063e219fc75146104d1578063e985e9c5146104ed578063f2fde38b1461052a57610140565b806372b3b6201461034c5780638da5cb5b1461037c57806395d89b41146103a7578063a22cb465146103d2578063ae677aa3146103fb578063b88d4fde1461042457610140565b8063202e374011610108578063202e37401461023e57806323b872dd1461026957806342842e0e146102925780636352211e146102bb57806370a08231146102f8578063715018a61461033557610140565b806301ffc9a71461014557806306fdde0314610182578063081812fc146101ad578063095ea7b3146101ea5780630f08efe014610213575b600080fd5b34801561015157600080fd5b5061016c60048036038101906101679190612958565b610553565b60405161017991906129a0565b60405180910390f35b34801561018e57600080fd5b506101976105b4565b6040516101a49190612a4b565b60405180910390f35b3480156101b957600080fd5b506101d460048036038101906101cf9190612aa3565b610646565b6040516101e19190612b11565b60405180910390f35b3480156101f657600080fd5b50610211600480360381019061020c9190612b58565b610662565b005b34801561021f57600080fd5b50610228610678565b6040516102359190612cdc565b60405180910390f35b34801561024a57600080fd5b5061025361087e565b6040516102609190612cdc565b60405180910390f35b34801561027557600080fd5b50610290600480360381019061028b9190612cfe565b610adf565b005b34801561029e57600080fd5b506102b960048036038101906102b49190612cfe565b610be1565b005b3480156102c757600080fd5b506102e260048036038101906102dd9190612aa3565b610c01565b6040516102ef9190612b11565b60405180910390f35b34801561030457600080fd5b5061031f600480360381019061031a9190612d51565b610c13565b60405161032c9190612d8d565b60405180910390f35b34801561034157600080fd5b5061034a610ccd565b005b61036660048036038101906103619190612edd565b610ce1565b6040516103739190612d8d565b60405180910390f35b34801561038857600080fd5b50610391610f18565b60405161039e9190612b11565b60405180910390f35b3480156103b357600080fd5b506103bc610f42565b6040516103c99190612a4b565b60405180910390f35b3480156103de57600080fd5b506103f960048036038101906103f49190612f65565b610fd4565b005b34801561040757600080fd5b50610422600480360381019061041d9190612aa3565b610fea565b005b34801561043057600080fd5b5061044b60048036038101906104469190613046565b610ffc565b005b61046760048036038101906104629190612aa3565b611021565b005b34801561047557600080fd5b5061047e6111e2565b60405161048b9190612d8d565b60405180910390f35b3480156104a057600080fd5b506104bb60048036038101906104b69190612aa3565b6111e8565b6040516104c89190612a4b565b60405180910390f35b6104eb60048036038101906104e691906130c9565b6112fb565b005b3480156104f957600080fd5b50610514600480360381019061050f9190613109565b6114cb565b60405161052191906129a0565b60405180910390f35b34801561053657600080fd5b50610551600480360381019061054c9190612d51565b61155f565b005b6000634906490660e01b7bffffffffffffffffffffffffffffffffffffffffffffffffffffffff1916827bffffffffffffffffffffffffffffffffffffffffffffffffffffffff191614806105ad57506105ac826115e5565b5b9050919050565b6060600080546105c390613178565b80601f01602080910402602001604051908101604052809291908181526020018280546105ef90613178565b801561063c5780601f106106115761010080835404028352916020019161063c565b820191906000526020600020905b81548152906001019060200180831161061f57829003601f168201915b5050505050905090565b6000610651826116c7565b5061065b8261174f565b9050919050565b610674828261066f61178c565b611794565b5050565b60606000600854905060006009548261069191906131d8565b905060008167ffffffffffffffff8111156106af576106ae612db2565b5b6040519080825280602002602001820160405280156106e857816020015b6106d561288f565b8152602001906001900390816106cd5790505b5093506000600190505b8381116108775760001515600b600083815260200190815260200160002060030160149054906101000a900460ff1615150361086a576000600b60008381526020019081526020016000206000015490506000600b60008381526020019081526020016000209050806040518060a001604052908160008201548152602001600182015481526020016002820160009054906101000a900473ffffffffffffffffffffffffffffffffffffffff1673ffffffffffffffffffffffffffffffffffffffff1673ffffffffffffffffffffffffffffffffffffffff1681526020016003820160009054906101000a900473ffffffffffffffffffffffffffffffffffffffff1673ffffffffffffffffffffffffffffffffffffffff1673ffffffffffffffffffffffffffffffffffffffff1681526020016003820160149054906101000a900460ff1615151515815250508785815181106108545761085361320c565b5b6020026020010181905250838060010194505050505b80806001019150506106f2565b5050505090565b6060600060085490506000806000600190505b8381116108e9573373ffffffffffffffffffffffffffffffffffffffff166108b882610c01565b73ffffffffffffffffffffffffffffffffffffffff16036108dc5782806001019350505b8080600101915050610891565b508167ffffffffffffffff81111561090457610903612db2565b5b60405190808252806020026020018201604052801561093d57816020015b61092a61288f565b8152602001906001900390816109225790505b5093506000600190505b838111610ad8573373ffffffffffffffffffffffffffffffffffffffff1661096e82610c01565b73ffffffffffffffffffffffffffffffffffffffff1603610acb576000600b60008381526020019081526020016000206000015490506000600b60008381526020019081526020016000209050806040518060a001604052908160008201548152602001600182015481526020016002820160009054906101000a900473ffffffffffffffffffffffffffffffffffffffff1673ffffffffffffffffffffffffffffffffffffffff1673ffffffffffffffffffffffffffffffffffffffff1681526020016003820160009054906101000a900473ffffffffffffffffffffffffffffffffffffffff1673ffffffffffffffffffffffffffffffffffffffff1673ffffffffffffffffffffffffffffffffffffffff1681526020016003820160149054906101000a900460ff161515151581525050878581518110610ab557610ab461320c565b5b6020026020010181905250838060010194505050505b8080600101915050610947565b5050505090565b600073ffffffffffffffffffffffffffffffffffffffff168273ffffffffffffffffffffffffffffffffffffffff1603610b515760006040517f64a0ae92000000000000000000000000000000000000000000000000000000008152600401610b489190612b11565b60405180910390fd5b6000610b658383610b6061178c565b6117a6565b90508373ffffffffffffffffffffffffffffffffffffffff168173ffffffffffffffffffffffffffffffffffffffff1614610bdb578382826040517f64283d7b000000000000000000000000000000000000000000000000000000008152600401610bd29392919061323b565b60405180910390fd5b50505050565b610bfc83838360405180602001604052806000815250610ffc565b505050565b6000610c0c826116c7565b9050919050565b60008073ffffffffffffffffffffffffffffffffffffffff168273ffffffffffffffffffffffffffffffffffffffff1603610c865760006040517f89c62b64000000000000000000000000000000000000000000000000000000008152600401610c7d9190612b11565b60405180910390fd5b600360008373ffffffffffffffffffffffffffffffffffffffff1673ffffffffffffffffffffffffffffffffffffffff168152602001908152602001600020549050919050565b610cd56119c0565b610cdf6000611a47565b565b6000808211610d25576040517f08c379a0000000000000000000000000000000000000000000000000000000008152600401610d1c906132be565b60405180910390fd5b600a543414610d69576040517f08c379a0000000000000000000000000000000000000000000000000000000008152600401610d6090613350565b60405180910390fd5b60086000815480929190600101919050555060006008549050610d8c3382611b0d565b610d968185611c06565b6040518060a001604052808281526020018481526020013373ffffffffffffffffffffffffffffffffffffffff1681526020013073ffffffffffffffffffffffffffffffffffffffff16815260200160001515815250600b6000838152602001908152602001600020600082015181600001556020820151816001015560408201518160020160006101000a81548173ffffffffffffffffffffffffffffffffffffffff021916908373ffffffffffffffffffffffffffffffffffffffff16021790555060608201518160030160006101000a81548173ffffffffffffffffffffffffffffffffffffffff021916908373ffffffffffffffffffffffffffffffffffffffff16021790555060808201518160030160146101000a81548160ff021916908315150217905550905050610ecf333083611c62565b807fb640004f1d14576d0c209e240cad0410e0d8c0c33a09375861fbadae2588a98d3330866000604051610f069493929190613370565b60405180910390a28091505092915050565b6000600760009054906101000a900473ffffffffffffffffffffffffffffffffffffffff16905090565b606060018054610f5190613178565b80601f0160208091040260200160405190810160405280929190818152602001828054610f7d90613178565b8015610fca5780601f10610f9f57610100808354040283529160200191610fca565b820191906000526020600020905b815481529060010190602001808311610fad57829003601f168201915b5050505050905090565b610fe6610fdf61178c565b8383611dcf565b5050565b610ff26119c0565b80600a8190555050565b611007848484610adf565b61101b61101261178c565b85858585611f3e565b50505050565b6000600b6000838152602001908152602001600020905060008160010154905060008260020160009054906101000a900473ffffffffffffffffffffffffffffffffffffffff1690508134146110ac576040517f08c379a00000000000000000000000000000000000000000000000000000000081526004016110a390613401565b60405180910390fd5b8260030160149054906101000a900460ff16156110fe576040517f08c379a00000000000000000000000000000000000000000000000000000000081526004016110f59061346d565b60405180910390fd5b60018360030160146101000a81548160ff02191690831515021790555060008360020160006101000a81548173ffffffffffffffffffffffffffffffffffffffff021916908373ffffffffffffffffffffffffffffffffffffffff160217905550338360030160006101000a81548173ffffffffffffffffffffffffffffffffffffffff021916908373ffffffffffffffffffffffffffffffffffffffff1602179055506009600081548092919060010191905055506111bf303386611c62565b6111c981346120ef565b6111dc6111d4610f18565b600a546120ef565b50505050565b600a5481565b60606111f3826116c7565b50600060066000848152602001908152602001600020805461121490613178565b80601f016020809104026020016040519081016040528092919081815260200182805461124090613178565b801561128d5780601f106112625761010080835404028352916020019161128d565b820191906000526020600020905b81548152906001019060200180831161127057829003601f168201915b50505050509050600061129e6121b9565b905060008151036112b35781925050506112f6565b6000825111156112e85780826040516020016112d09291906134c9565b604051602081830303815290604052925050506112f6565b6112f1846121d0565b925050505b919050565b3373ffffffffffffffffffffffffffffffffffffffff1661131b83610c01565b73ffffffffffffffffffffffffffffffffffffffff1614611371576040517f08c379a00000000000000000000000000000000000000000000000000000000081526004016113689061355f565b60405180910390fd5b600a5434146113b5576040517f08c379a00000000000000000000000000000000000000000000000000000000081526004016113ac90613350565b60405180910390fd5b6000600b600084815260200190815260200160002060030160146101000a81548160ff02191690831515021790555080600b60008481526020019081526020016000206001018190555033600b600084815260200190815260200160002060020160006101000a81548173ffffffffffffffffffffffffffffffffffffffff021916908373ffffffffffffffffffffffffffffffffffffffff16021790555030600b600084815260200190815260200160002060030160006101000a81548173ffffffffffffffffffffffffffffffffffffffff021916908373ffffffffffffffffffffffffffffffffffffffff160217905550600960008154809291906001900391905055506114c7333084611c62565b5050565b6000600560008473ffffffffffffffffffffffffffffffffffffffff1673ffffffffffffffffffffffffffffffffffffffff16815260200190815260200160002060008373ffffffffffffffffffffffffffffffffffffffff1673ffffffffffffffffffffffffffffffffffffffff16815260200190815260200160002060009054906101000a900460ff16905092915050565b6115676119c0565b600073ffffffffffffffffffffffffffffffffffffffff168173ffffffffffffffffffffffffffffffffffffffff16036115d95760006040517f1e4fbdf70000000000000000000000000000000000000000000000000000000081526004016115d09190612b11565b60405180910390fd5b6115e281611a47565b50565b60007f80ac58cd000000000000000000000000000000000000000000000000000000007bffffffffffffffffffffffffffffffffffffffffffffffffffffffff1916827bffffffffffffffffffffffffffffffffffffffffffffffffffffffff191614806116b057507f5b5e139f000000000000000000000000000000000000000000000000000000007bffffffffffffffffffffffffffffffffffffffffffffffffffffffff1916827bffffffffffffffffffffffffffffffffffffffffffffffffffffffff1916145b806116c057506116bf82612239565b5b9050919050565b6000806116d3836122a3565b9050600073ffffffffffffffffffffffffffffffffffffffff168173ffffffffffffffffffffffffffffffffffffffff160361174657826040517f7e27328900000000000000000000000000000000000000000000000000000000815260040161173d9190612d8d565b60405180910390fd5b80915050919050565b60006004600083815260200190815260200160002060009054906101000a900473ffffffffffffffffffffffffffffffffffffffff169050919050565b600033905090565b6117a183838360016122e0565b505050565b6000806117b2846122a3565b9050600073ffffffffffffffffffffffffffffffffffffffff168373ffffffffffffffffffffffffffffffffffffffff16146117f4576117f38184866124a5565b5b600073ffffffffffffffffffffffffffffffffffffffff168173ffffffffffffffffffffffffffffffffffffffff1614611885576118366000856000806122e0565b6001600360008373ffffffffffffffffffffffffffffffffffffffff1673ffffffffffffffffffffffffffffffffffffffff168152602001908152602001600020600082825403925050819055505b600073ffffffffffffffffffffffffffffffffffffffff168573ffffffffffffffffffffffffffffffffffffffff1614611908576001600360008773ffffffffffffffffffffffffffffffffffffffff1673ffffffffffffffffffffffffffffffffffffffff168152602001908152602001600020600082825401925050819055505b846002600086815260200190815260200160002060006101000a81548173ffffffffffffffffffffffffffffffffffffffff021916908373ffffffffffffffffffffffffffffffffffffffff160217905550838573ffffffffffffffffffffffffffffffffffffffff168273ffffffffffffffffffffffffffffffffffffffff167fddf252ad1be2c89b69c2b068fc378daa952ba7f163c4a11628f55a4df523b3ef60405160405180910390a4809150509392505050565b6119c861178c565b73ffffffffffffffffffffffffffffffffffffffff166119e6610f18565b73ffffffffffffffffffffffffffffffffffffffff1614611a4557611a0961178c565b6040517f118cdaa7000000000000000000000000000000000000000000000000000000008152600401611a3c9190612b11565b60405180910390fd5b565b6000600760009054906101000a900473ffffffffffffffffffffffffffffffffffffffff16905081600760006101000a81548173ffffffffffffffffffffffffffffffffffffffff021916908373ffffffffffffffffffffffffffffffffffffffff1602179055508173ffffffffffffffffffffffffffffffffffffffff168173ffffffffffffffffffffffffffffffffffffffff167f8be0079c531659141344cd1fd0a4f28419497f9722a3daafe3b4186f6b6457e060405160405180910390a35050565b600073ffffffffffffffffffffffffffffffffffffffff168273ffffffffffffffffffffffffffffffffffffffff1603611b7f5760006040517f64a0ae92000000000000000000000000000000000000000000000000000000008152600401611b769190612b11565b60405180910390fd5b6000611b8d838360006117a6565b9050600073ffffffffffffffffffffffffffffffffffffffff168173ffffffffffffffffffffffffffffffffffffffff1614611c015760006040517f73c6ac6e000000000000000000000000000000000000000000000000000000008152600401611bf89190612b11565b60405180910390fd5b505050565b80600660008481526020019081526020016000209081611c26919061372b565b507ff8e1a15aba9398e019f0b49df1a4fde98ee17ae345cb5f6b5e2c27f5033e8ce782604051611c569190612d8d565b60405180910390a15050565b600073ffffffffffffffffffffffffffffffffffffffff168273ffffffffffffffffffffffffffffffffffffffff1603611cd45760006040517f64a0ae92000000000000000000000000000000000000000000000000000000008152600401611ccb9190612b11565b60405180910390fd5b6000611ce2838360006117a6565b9050600073ffffffffffffffffffffffffffffffffffffffff168173ffffffffffffffffffffffffffffffffffffffff1603611d5557816040517f7e273289000000000000000000000000000000000000000000000000000000008152600401611d4c9190612d8d565b60405180910390fd5b8373ffffffffffffffffffffffffffffffffffffffff168173ffffffffffffffffffffffffffffffffffffffff1614611dc9578382826040517f64283d7b000000000000000000000000000000000000000000000000000000008152600401611dc09392919061323b565b60405180910390fd5b50505050565b600073ffffffffffffffffffffffffffffffffffffffff168273ffffffffffffffffffffffffffffffffffffffff1603611e4057816040517f5b08ba18000000000000000000000000000000000000000000000000000000008152600401611e379190612b11565b60405180910390fd5b80600560008573ffffffffffffffffffffffffffffffffffffffff1673ffffffffffffffffffffffffffffffffffffffff16815260200190815260200160002060008473ffffffffffffffffffffffffffffffffffffffff1673ffffffffffffffffffffffffffffffffffffffff16815260200190815260200160002060006101000a81548160ff0219169083151502179055508173ffffffffffffffffffffffffffffffffffffffff168373ffffffffffffffffffffffffffffffffffffffff167f17307eab39ab6107e8899845ad3d59bd9653f200f220920489ca2b5937696c3183604051611f3191906129a0565b60405180910390a3505050565b60008373ffffffffffffffffffffffffffffffffffffffff163b11156120e8578273ffffffffffffffffffffffffffffffffffffffff1663150b7a02868685856040518563ffffffff1660e01b8152600401611f9d9493929190613852565b6020604051808303816000875af1925050508015611fd957506040513d601f19601f82011682018060405250810190611fd691906138b3565b60015b61205d573d8060008114612009576040519150601f19603f3d011682016040523d82523d6000602084013e61200e565b606091505b50600081510361205557836040517f64a0ae9200000000000000000000000000000000000000000000000000000000815260040161204c9190612b11565b60405180910390fd5b805160208201fd5b63150b7a0260e01b7bffffffffffffffffffffffffffffffffffffffffffffffffffffffff1916817bffffffffffffffffffffffffffffffffffffffffffffffffffffffff1916146120e657836040517f64a0ae920000000000000000000000000000000000000000000000000000000081526004016120dd9190612b11565b60405180910390fd5b505b5050505050565b804710156121365747816040517fcf47918100000000000000000000000000000000000000000000000000000000815260040161212d9291906138e0565b60405180910390fd5b6000808373ffffffffffffffffffffffffffffffffffffffff168360405161215d9061393a565b60006040518083038185875af1925050503d806000811461219a576040519150601f19603f3d011682016040523d82523d6000602084013e61219f565b606091505b5091509150816121b3576121b281612569565b5b50505050565b606060405180602001604052806000815250905090565b60606121db826116c7565b5060006121e66121b9565b905060008151116122065760405180602001604052806000815250612231565b80612210846125ad565b6040516020016122219291906134c9565b6040516020818303038152906040525b915050919050565b60007f01ffc9a7000000000000000000000000000000000000000000000000000000007bffffffffffffffffffffffffffffffffffffffffffffffffffffffff1916827bffffffffffffffffffffffffffffffffffffffffffffffffffffffff1916149050919050565b60006002600083815260200190815260200160002060009054906101000a900473ffffffffffffffffffffffffffffffffffffffff169050919050565b80806123195750600073ffffffffffffffffffffffffffffffffffffffff168273ffffffffffffffffffffffffffffffffffffffff1614155b1561244d576000612329846116c7565b9050600073ffffffffffffffffffffffffffffffffffffffff168373ffffffffffffffffffffffffffffffffffffffff161415801561239457508273ffffffffffffffffffffffffffffffffffffffff168173ffffffffffffffffffffffffffffffffffffffff1614155b80156123a757506123a581846114cb565b155b156123e957826040517fa9fbf51f0000000000000000000000000000000000000000000000000000000081526004016123e09190612b11565b60405180910390fd5b811561244b57838573ffffffffffffffffffffffffffffffffffffffff168273ffffffffffffffffffffffffffffffffffffffff167f8c5be1e5ebec7d5bd14f71427d1e84f3dd0314c0f7b2291e5b200ac8c7c3b92560405160405180910390a45b505b836004600085815260200190815260200160002060006101000a81548173ffffffffffffffffffffffffffffffffffffffff021916908373ffffffffffffffffffffffffffffffffffffffff16021790555050505050565b6124b083838361267b565b61256457600073ffffffffffffffffffffffffffffffffffffffff168373ffffffffffffffffffffffffffffffffffffffff160361252557806040517f7e27328900000000000000000000000000000000000000000000000000000000815260040161251c9190612d8d565b60405180910390fd5b81816040517f177e802f00000000000000000000000000000000000000000000000000000000815260040161255b92919061394f565b60405180910390fd5b505050565b60008151111561257b57805160208201fd5b6040517fd6bda27500000000000000000000000000000000000000000000000000000000815260040160405180910390fd5b6060600060016125bc8461273c565b01905060008167ffffffffffffffff8111156125db576125da612db2565b5b6040519080825280601f01601f19166020018201604052801561260d5781602001600182028036833780820191505090505b509050600082602083010190505b600115612670578080600190039150507f3031323334353637383961626364656600000000000000000000000000000000600a86061a8153600a858161266457612663613978565b5b0494506000850361261b575b819350505050919050565b60008073ffffffffffffffffffffffffffffffffffffffff168373ffffffffffffffffffffffffffffffffffffffff161415801561273357508273ffffffffffffffffffffffffffffffffffffffff168473ffffffffffffffffffffffffffffffffffffffff1614806126f457506126f384846114cb565b5b8061273257508273ffffffffffffffffffffffffffffffffffffffff1661271a8361174f565b73ffffffffffffffffffffffffffffffffffffffff16145b5b90509392505050565b600080600090507a184f03e93ff9f4daa797ed6e38ed64bf6a1f010000000000000000831061279a577a184f03e93ff9f4daa797ed6e38ed64bf6a1f01000000000000000083816127905761278f613978565b5b0492506040810190505b6d04ee2d6d415b85acef810000000083106127d7576d04ee2d6d415b85acef810000000083816127cd576127cc613978565b5b0492506020810190505b662386f26fc10000831061280657662386f26fc1000083816127fc576127fb613978565b5b0492506010810190505b6305f5e100831061282f576305f5e100838161282557612824613978565b5b0492506008810190505b612710831061285457612710838161284a57612849613978565b5b0492506004810190505b60648310612877576064838161286d5761286c613978565b5b0492506002810190505b600a8310612886576001810190505b80915050919050565b6040518060a001604052806000815260200160008152602001600073ffffffffffffffffffffffffffffffffffffffff168152602001600073ffffffffffffffffffffffffffffffffffffffff1681526020016000151581525090565b6000604051905090565b600080fd5b600080fd5b60007fffffffff0000000000000000000000000000000000000000000000000000000082169050919050565b61293581612900565b811461294057600080fd5b50565b6000813590506129528161292c565b92915050565b60006020828403121561296e5761296d6128f6565b5b600061297c84828501612943565b91505092915050565b60008115159050919050565b61299a81612985565b82525050565b60006020820190506129b56000830184612991565b92915050565b600081519050919050565b600082825260208201905092915050565b60005b838110156129f55780820151818401526020810190506129da565b60008484015250505050565b6000601f19601f8301169050919050565b6000612a1d826129bb565b612a2781856129c6565b9350612a378185602086016129d7565b612a4081612a01565b840191505092915050565b60006020820190508181036000830152612a658184612a12565b905092915050565b6000819050919050565b612a8081612a6d565b8114612a8b57600080fd5b50565b600081359050612a9d81612a77565b92915050565b600060208284031215612ab957612ab86128f6565b5b6000612ac784828501612a8e565b91505092915050565b600073ffffffffffffffffffffffffffffffffffffffff82169050919050565b6000612afb82612ad0565b9050919050565b612b0b81612af0565b82525050565b6000602082019050612b266000830184612b02565b92915050565b612b3581612af0565b8114612b4057600080fd5b50565b600081359050612b5281612b2c565b92915050565b60008060408385031215612b6f57612b6e6128f6565b5b6000612b7d85828601612b43565b9250506020612b8e85828601612a8e565b9150509250929050565b600081519050919050565b600082825260208201905092915050565b6000819050602082019050919050565b612bcd81612a6d565b82525050565b612bdc81612af0565b82525050565b612beb81612985565b82525050565b60a082016000820151612c076000850182612bc4565b506020820151612c1a6020850182612bc4565b506040820151612c2d6040850182612bd3565b506060820151612c406060850182612bd3565b506080820151612c536080850182612be2565b50505050565b6000612c658383612bf1565b60a08301905092915050565b6000602082019050919050565b6000612c8982612b98565b612c938185612ba3565b9350612c9e83612bb4565b8060005b83811015612ccf578151612cb68882612c59565b9750612cc183612c71565b925050600181019050612ca2565b5085935050505092915050565b60006020820190508181036000830152612cf68184612c7e565b905092915050565b600080600060608486031215612d1757612d166128f6565b5b6000612d2586828701612b43565b9350506020612d3686828701612b43565b9250506040612d4786828701612a8e565b9150509250925092565b600060208284031215612d6757612d666128f6565b5b6000612d7584828501612b43565b91505092915050565b612d8781612a6d565b82525050565b6000602082019050612da26000830184612d7e565b92915050565b600080fd5b600080fd5b7f4e487b7100000000000000000000000000000000000000000000000000000000600052604160045260246000fd5b612dea82612a01565b810181811067ffffffffffffffff82111715612e0957612e08612db2565b5b80604052505050565b6000612e1c6128ec565b9050612e288282612de1565b919050565b600067ffffffffffffffff821115612e4857612e47612db2565b5b612e5182612a01565b9050602081019050919050565b82818337600083830152505050565b6000612e80612e7b84612e2d565b612e12565b905082815260208101848484011115612e9c57612e9b612dad565b5b612ea7848285612e5e565b509392505050565b600082601f830112612ec457612ec3612da8565b5b8135612ed4848260208601612e6d565b91505092915050565b60008060408385031215612ef457612ef36128f6565b5b600083013567ffffffffffffffff811115612f1257612f116128fb565b5b612f1e85828601612eaf565b9250506020612f2f85828601612a8e565b9150509250929050565b612f4281612985565b8114612f4d57600080fd5b50565b600081359050612f5f81612f39565b92915050565b60008060408385031215612f7c57612f7b6128f6565b5b6000612f8a85828601612b43565b9250506020612f9b85828601612f50565b9150509250929050565b600067ffffffffffffffff821115612fc057612fbf612db2565b5b612fc982612a01565b9050602081019050919050565b6000612fe9612fe484612fa5565b612e12565b90508281526020810184848401111561300557613004612dad565b5b613010848285612e5e565b509392505050565b600082601f83011261302d5761302c612da8565b5b813561303d848260208601612fd6565b91505092915050565b600080600080608085870312156130605761305f6128f6565b5b600061306e87828801612b43565b945050602061307f87828801612b43565b935050604061309087828801612a8e565b925050606085013567ffffffffffffffff8111156130b1576130b06128fb565b5b6130bd87828801613018565b91505092959194509250565b600080604083850312156130e0576130df6128f6565b5b60006130ee85828601612a8e565b92505060206130ff85828601612a8e565b9150509250929050565b600080604083850312156131205761311f6128f6565b5b600061312e85828601612b43565b925050602061313f85828601612b43565b9150509250929050565b7f4e487b7100000000000000000000000000000000000000000000000000000000600052602260045260246000fd5b6000600282049050600182168061319057607f821691505b6020821081036131a3576131a2613149565b5b50919050565b7f4e487b7100000000000000000000000000000000000000000000000000000000600052601160045260246000fd5b60006131e382612a6d565b91506131ee83612a6d565b9250828203905081811115613206576132056131a9565b5b92915050565b7f4e487b7100000000000000000000000000000000000000000000000000000000600052603260045260246000fd5b60006060820190506132506000830186612b02565b61325d6020830185612d7e565b61326a6040830184612b02565b949350505050565b7f5072696365206d757374206265206174206c6561737420312077656900000000600082015250565b60006132a8601c836129c6565b91506132b382613272565b602082019050919050565b600060208201905081810360008301526132d78161329b565b9050919050565b7f5072696365206d75737420626520657175616c20746f206c697374696e67207060008201527f7269636500000000000000000000000000000000000000000000000000000000602082015250565b600061333a6024836129c6565b9150613345826132de565b604082019050919050565b600060208201905081810360008301526133698161332d565b9050919050565b60006080820190506133856000830187612b02565b6133926020830186612b02565b61339f6040830185612d7e565b6133ac6060830184612991565b95945050505050565b7f506c65617365207375626d6974207468652061736b696e672070726963650000600082015250565b60006133eb601e836129c6565b91506133f6826133b5565b602082019050919050565b6000602082019050818103600083015261341a816133de565b9050919050565b7f4974656d20616c726561647920736f6c64000000000000000000000000000000600082015250565b60006134576011836129c6565b915061346282613421565b602082019050919050565b600060208201905081810360008301526134868161344a565b9050919050565b600081905092915050565b60006134a3826129bb565b6134ad818561348d565b93506134bd8185602086016129d7565b80840191505092915050565b60006134d58285613498565b91506134e18284613498565b91508190509392505050565b7f4f6e6c79206974656d206f776e65722063616e20706572666f726d207468697360008201527f206f7065726174696f6e00000000000000000000000000000000000000000000602082015250565b6000613549602a836129c6565b9150613554826134ed565b604082019050919050565b600060208201905081810360008301526135788161353c565b9050919050565b60008190508160005260206000209050919050565b60006020601f8301049050919050565b600082821b905092915050565b6000600883026135e17fffffffffffffffffffffffffffffffffffffffffffffffffffffffffffffffff826135a4565b6135eb86836135a4565b95508019841693508086168417925050509392505050565b6000819050919050565b600061362861362361361e84612a6d565b613603565b612a6d565b9050919050565b6000819050919050565b6136428361360d565b61365661364e8261362f565b8484546135b1565b825550505050565b600090565b61366b61365e565b613676818484613639565b505050565b5b8181101561369a5761368f600082613663565b60018101905061367c565b5050565b601f8211156136df576136b08161357f565b6136b984613594565b810160208510156136c8578190505b6136dc6136d485613594565b83018261367b565b50505b505050565b600082821c905092915050565b6000613702600019846008026136e4565b1980831691505092915050565b600061371b83836136f1565b9150826002028217905092915050565b613734826129bb565b67ffffffffffffffff81111561374d5761374c612db2565b5b6137578254613178565b61376282828561369e565b600060209050601f8311600181146137955760008415613783578287015190505b61378d858261370f565b8655506137f5565b601f1984166137a38661357f565b60005b828110156137cb578489015182556001820191506020850194506020810190506137a6565b868310156137e857848901516137e4601f8916826136f1565b8355505b6001600288020188555050505b505050505050565b600081519050919050565b600082825260208201905092915050565b6000613824826137fd565b61382e8185613808565b935061383e8185602086016129d7565b61384781612a01565b840191505092915050565b60006080820190506138676000830187612b02565b6138746020830186612b02565b6138816040830185612d7e565b81810360608301526138938184613819565b905095945050505050565b6000815190506138ad8161292c565b92915050565b6000602082840312156138c9576138c86128f6565b5b60006138d78482850161389e565b91505092915050565b60006040820190506138f56000830185612d7e565b6139026020830184612d7e565b9392505050565b600081905092915050565b50565b6000613924600083613909565b915061392f82613914565b600082019050919050565b600061394582613917565b9150819050919050565b60006040820190506139646000830185612b02565b6139716020830184612d7e565b9392505050565b7f4e487b7100000000000000000000000000000000000000000000000000000000600052601260045260246000fdfea2646970667358221220160ad1a1f1969ff5577bf54edfd59cfbd70f2faf6cde98d73f2a33781ffa49b164736f6c63430008140033",
  "linkReferences": {},
  "deployedLinkReferences": {}
}